{
  "_format": "hh-sol-artifact-1",
  "contractName": "CoinCircles",
  "sourceName": "contracts/hello.sol",
  "abi": [
    {
      "anonymous": false,
      "inputs": [
        {
          "indexed": false,
          "internalType": "uint256",
          "name": "chamaId",
          "type": "uint256"
        },
        {
          "indexed": false,
          "internalType": "string",
          "name": "name",
          "type": "string"
        }
      ],
      "name": "ChamaCreated",
      "type": "event"
    },
    {
      "anonymous": false,
      "inputs": [
        {
          "indexed": false,
          "internalType": "address",
          "name": "wallet_address",
          "type": "address"
        }
      ],
      "name": "UserConnected",
      "type": "event"
    },
    {
      "inputs": [
        {
          "internalType": "uint256",
          "name": "",
          "type": "uint256"
        }
      ],
      "name": "chamas",
      "outputs": [
        {
          "internalType": "string",
          "name": "name",
          "type": "string"
        },
        {
          "internalType": "string",
          "name": "purpose",
          "type": "string"
        },
        {
          "internalType": "uint256",
          "name": "maxNoOfPeople",
          "type": "uint256"
        },
        {
          "internalType": "uint256",
          "name": "minDeposit",
          "type": "uint256"
        },
        {
          "internalType": "bool",
          "name": "isFull",
          "type": "bool"
        }
      ],
      "stateMutability": "view",
      "type": "function"
    },
    {
      "inputs": [],
      "name": "connect_user",
      "outputs": [],
      "stateMutability": "nonpayable",
      "type": "function"
    },
    {
      "inputs": [
        {
          "internalType": "string",
          "name": "_name",
          "type": "string"
        },
        {
          "internalType": "string",
          "name": "_purpose",
          "type": "string"
        },
        {
          "internalType": "uint256",
          "name": "_maxNoPeople",
          "type": "uint256"
        },
        {
          "internalType": "uint256",
          "name": "_minDeposit",
          "type": "uint256"
        }
      ],
      "name": "create_chama",
      "outputs": [],
      "stateMutability": "nonpayable",
      "type": "function"
    },
    {
      "inputs": [
        {
          "internalType": "address",
          "name": "",
          "type": "address"
        }
      ],
      "name": "users",
      "outputs": [
        {
          "internalType": "address",
          "name": "wallet_address",
          "type": "address"
        },
        {
          "internalType": "bool",
          "name": "isConnected",
          "type": "bool"
        }
      ],
      "stateMutability": "view",
      "type": "function"
    }
  ],
  "bytecode": "0x608060405234801561001057600080fd5b5061106a806100206000396000f3fe608060405234801561001057600080fd5b506004361061004c5760003560e01c80630b5d70851461005157806393520a4c146100855780639e0cf430146100a1578063a87430ba146100ab575b600080fd5b61006b60048036038101906100669190610691565b6100dc565b60405161007c959493929190610778565b60405180910390f35b61009f600480360381019061009a919061090e565b61022f565b005b6100a9610450565b005b6100c560048036038101906100c09190610a0b565b6105f6565b6040516100d3929190610a47565b60405180910390f35b60026020528060005260406000206000915090508060000180546100ff90610a9f565b80601f016020809104026020016040519081016040528092919081815260200182805461012b90610a9f565b80156101785780601f1061014d57610100808354040283529160200191610178565b820191906000526020600020905b81548152906001019060200180831161015b57829003601f168201915b50505050509080600101805461018d90610a9f565b80601f01602080910402602001604051908101604052809291908181526020018280546101b990610a9f565b80156102065780601f106101db57610100808354040283529160200191610206565b820191906000526020600020905b8154815290600101906020018083116101e957829003601f168201915b5050505050908060020154908060030154908060040160009054906101000a900460ff16905085565b600160003373ffffffffffffffffffffffffffffffffffffffff1673ffffffffffffffffffffffffffffffffffffffff16815260200190815260200160002060000160149054906101000a900460ff166102be576040517f08c379a00000000000000000000000000000000000000000000000000000000081526004016102b590610b1c565b60405180910390fd5b60005b6000548111610350578480519060200120600260008381526020019081526020016000206000016040516102f59190610bdf565b60405180910390200361033d576040517f08c379a000000000000000000000000000000000000000000000000000000000815260040161033490610c68565b60405180910390fd5b808061034890610cb7565b9150506102c1565b5060006040518060a0016040528086815260200185815260200184815260200183815260200160001515815250905080600260008054815260200190815260200160002060008201518160000190816103a99190610eab565b5060208201518160010190816103bf9190610eab565b50604082015181600201556060820151816003015560808201518160040160006101000a81548160ff02191690831515021790555090505060008081548092919061040990610cb7565b91905055507f49cb94e7d9a5343c1b6f9d204a2429b9ec84f610e0028abd5eff7f312e328fb460005486604051610441929190610f7d565b60405180910390a15050505050565b600160003373ffffffffffffffffffffffffffffffffffffffff1673ffffffffffffffffffffffffffffffffffffffff16815260200190815260200160002060000160149054906101000a900460ff16156104e0576040517f08c379a00000000000000000000000000000000000000000000000000000000081526004016104d790610ff9565b60405180910390fd5b600060405180604001604052803373ffffffffffffffffffffffffffffffffffffffff16815260200160011515815250905080600160003373ffffffffffffffffffffffffffffffffffffffff1673ffffffffffffffffffffffffffffffffffffffff16815260200190815260200160002060008201518160000160006101000a81548173ffffffffffffffffffffffffffffffffffffffff021916908373ffffffffffffffffffffffffffffffffffffffff16021790555060208201518160000160146101000a81548160ff0219169083151502179055509050507f9fe37c9a85a4cac3290d857b0b43b8afa0bbad4876059c8e1419d6d871b3fd43336040516105eb9190611019565b60405180910390a150565b60016020528060005260406000206000915090508060000160009054906101000a900473ffffffffffffffffffffffffffffffffffffffff16908060000160149054906101000a900460ff16905082565b6000604051905090565b600080fd5b600080fd5b6000819050919050565b61066e8161065b565b811461067957600080fd5b50565b60008135905061068b81610665565b92915050565b6000602082840312156106a7576106a6610651565b5b60006106b58482850161067c565b91505092915050565b600081519050919050565b600082825260208201905092915050565b60005b838110156106f85780820151818401526020810190506106dd565b60008484015250505050565b6000601f19601f8301169050919050565b6000610720826106be565b61072a81856106c9565b935061073a8185602086016106da565b61074381610704565b840191505092915050565b6107578161065b565b82525050565b60008115159050919050565b6107728161075d565b82525050565b600060a08201905081810360008301526107928188610715565b905081810360208301526107a68187610715565b90506107b5604083018661074e565b6107c2606083018561074e565b6107cf6080830184610769565b9695505050505050565b600080fd5b600080fd5b7f4e487b7100000000000000000000000000000000000000000000000000000000600052604160045260246000fd5b61081b82610704565b810181811067ffffffffffffffff8211171561083a576108396107e3565b5b80604052505050565b600061084d610647565b90506108598282610812565b919050565b600067ffffffffffffffff821115610879576108786107e3565b5b61088282610704565b9050602081019050919050565b82818337600083830152505050565b60006108b16108ac8461085e565b610843565b9050828152602081018484840111156108cd576108cc6107de565b5b6108d884828561088f565b509392505050565b600082601f8301126108f5576108f46107d9565b5b813561090584826020860161089e565b91505092915050565b6000806000806080858703121561092857610927610651565b5b600085013567ffffffffffffffff81111561094657610945610656565b5b610952878288016108e0565b945050602085013567ffffffffffffffff81111561097357610972610656565b5b61097f878288016108e0565b93505060406109908782880161067c565b92505060606109a18782880161067c565b91505092959194509250565b600073ffffffffffffffffffffffffffffffffffffffff82169050919050565b60006109d8826109ad565b9050919050565b6109e8816109cd565b81146109f357600080fd5b50565b600081359050610a05816109df565b92915050565b600060208284031215610a2157610a20610651565b5b6000610a2f848285016109f6565b91505092915050565b610a41816109cd565b82525050565b6000604082019050610a5c6000830185610a38565b610a696020830184610769565b9392505050565b7f4e487b7100000000000000000000000000000000000000000000000000000000600052602260045260246000fd5b60006002820490506001821680610ab757607f821691505b602082108103610aca57610ac9610a70565b5b50919050565b7f55736572206973206e6f7420636f6e6e65637465640000000000000000000000600082015250565b6000610b066015836106c9565b9150610b1182610ad0565b602082019050919050565b60006020820190508181036000830152610b3581610af9565b9050919050565b600081905092915050565b60008190508160005260206000209050919050565b60008154610b6981610a9f565b610b738186610b3c565b94506001821660008114610b8e5760018114610ba357610bd6565b60ff1983168652811515820286019350610bd6565b610bac85610b47565b60005b83811015610bce57815481890152600182019150602081019050610baf565b838801955050505b50505092915050565b6000610beb8284610b5c565b915081905092915050565b7f41206368616d6120776974682074686973206e616d6520616c7265616479206560008201527f7869737473000000000000000000000000000000000000000000000000000000602082015250565b6000610c526025836106c9565b9150610c5d82610bf6565b604082019050919050565b60006020820190508181036000830152610c8181610c45565b9050919050565b7f4e487b7100000000000000000000000000000000000000000000000000000000600052601160045260246000fd5b6000610cc28261065b565b91507fffffffffffffffffffffffffffffffffffffffffffffffffffffffffffffffff8203610cf457610cf3610c88565b5b600182019050919050565b60008190508160005260206000209050919050565b60006020601f8301049050919050565b600082821b905092915050565b600060088302610d617fffffffffffffffffffffffffffffffffffffffffffffffffffffffffffffffff82610d24565b610d6b8683610d24565b95508019841693508086168417925050509392505050565b6000819050919050565b6000610da8610da3610d9e8461065b565b610d83565b61065b565b9050919050565b6000819050919050565b610dc283610d8d565b610dd6610dce82610daf565b848454610d31565b825550505050565b600090565b610deb610dde565b610df6818484610db9565b505050565b5b81811015610e1a57610e0f600082610de3565b600181019050610dfc565b5050565b601f821115610e5f57610e3081610cff565b610e3984610d14565b81016020851015610e48578190505b610e5c610e5485610d14565b830182610dfb565b50505b505050565b600082821c905092915050565b6000610e8260001984600802610e64565b1980831691505092915050565b6000610e9b8383610e71565b9150826002028217905092915050565b610eb4826106be565b67ffffffffffffffff811115610ecd57610ecc6107e3565b5b610ed78254610a9f565b610ee2828285610e1e565b600060209050601f831160018114610f155760008415610f03578287015190505b610f0d8582610e8f565b865550610f75565b601f198416610f2386610cff565b60005b82811015610f4b57848901518255600182019150602085019450602081019050610f26565b86831015610f685784890151610f64601f891682610e71565b8355505b6001600288020188555050505b505050505050565b6000604082019050610f92600083018561074e565b8181036020830152610fa48184610715565b90509392505050565b7f5573657220697320616c72656164792020436f6e6e6563746564000000000000600082015250565b6000610fe3601a836106c9565b9150610fee82610fad565b602082019050919050565b6000602082019050818103600083015261101281610fd6565b9050919050565b600060208201905061102e6000830184610a38565b9291505056fea264697066735822122024212e8823fdb7a6feb8d641543e97c24fe2712a58f9b6f6053e93c3684255e064736f6c63430008130033",
  "linkReferences": {},
  "deployedLinkReferences": {}
}