{
  "_format": "hh-sol-artifact-1",
  "contractName": "CoinCircles",
  "sourceName": "contracts/hello.sol",
  "abi": [
    {
      "anonymous": false,
      "inputs": [
        {
          "indexed": false,
          "internalType": "uint256",
          "name": "chamaId",
          "type": "uint256"
        },
        {
          "indexed": false,
          "internalType": "string",
          "name": "name",
          "type": "string"
        }
      ],
      "name": "ChamaCreated",
      "type": "event"
    },
    {
      "anonymous": false,
      "inputs": [
        {
          "indexed": false,
          "internalType": "address",
          "name": "wallet_address",
          "type": "address"
        }
      ],
      "name": "UserConnected",
      "type": "event"
    },
    {
      "inputs": [
        {
          "internalType": "uint256",
          "name": "",
          "type": "uint256"
        }
      ],
      "name": "chamas",
      "outputs": [
        {
          "internalType": "string",
          "name": "name",
          "type": "string"
        },
        {
          "internalType": "string",
          "name": "purpose",
          "type": "string"
        },
        {
          "internalType": "uint256",
          "name": "maxNoOfPeople",
          "type": "uint256"
        },
        {
          "internalType": "uint256",
          "name": "minDeposit",
          "type": "uint256"
        },
        {
          "internalType": "bool",
          "name": "isFull",
          "type": "bool"
        },
        {
          "internalType": "enum CoinCircles.ChamaVisibility",
          "name": "visibility",
          "type": "uint8"
        }
      ],
      "stateMutability": "view",
      "type": "function"
    },
    {
      "inputs": [],
      "name": "connect_user",
      "outputs": [],
      "stateMutability": "nonpayable",
      "type": "function"
    },
    {
      "inputs": [
        {
          "internalType": "string",
          "name": "_name",
          "type": "string"
        },
        {
          "internalType": "string",
          "name": "_purpose",
          "type": "string"
        },
        {
          "internalType": "uint256",
          "name": "_maxNoPeople",
          "type": "uint256"
        },
        {
          "internalType": "uint256",
          "name": "_minDeposit",
          "type": "uint256"
        },
        {
          "internalType": "enum CoinCircles.ChamaVisibility",
          "name": "_visibility",
          "type": "uint8"
        }
      ],
      "name": "create_chama",
      "outputs": [],
      "stateMutability": "nonpayable",
      "type": "function"
    },
    {
      "inputs": [
        {
          "internalType": "address",
          "name": "",
          "type": "address"
        }
      ],
      "name": "users",
      "outputs": [
        {
          "internalType": "address",
          "name": "wallet_address",
          "type": "address"
        },
        {
          "internalType": "bool",
          "name": "isConnected",
          "type": "bool"
        }
      ],
      "stateMutability": "view",
      "type": "function"
    }
  ],
  "bytecode": "0x608060405234801561001057600080fd5b50611185806100206000396000f3fe608060405234801561001057600080fd5b506004361061004c5760003560e01c80630b5d7085146100515780639e0cf43014610086578063a87430ba14610090578063b9f371c4146100c1575b600080fd5b61006b600480360381019061006691906106ee565b6100dd565b60405161007d9695949392919061084c565b60405180910390f35b61008e610243565b005b6100aa60048036038101906100a59190610919565b6103e9565b6040516100b8929190610955565b60405180910390f35b6100db60048036038101906100d69190610ad8565b61043a565b005b600260205280600052604060002060009150905080600001805461010090610bba565b80601f016020809104026020016040519081016040528092919081815260200182805461012c90610bba565b80156101795780601f1061014e57610100808354040283529160200191610179565b820191906000526020600020905b81548152906001019060200180831161015c57829003601f168201915b50505050509080600101805461018e90610bba565b80601f01602080910402602001604051908101604052809291908181526020018280546101ba90610bba565b80156102075780601f106101dc57610100808354040283529160200191610207565b820191906000526020600020905b8154815290600101906020018083116101ea57829003601f168201915b5050505050908060020154908060030154908060040160009054906101000a900460ff16908060040160019054906101000a900460ff16905086565b600160003373ffffffffffffffffffffffffffffffffffffffff1673ffffffffffffffffffffffffffffffffffffffff16815260200190815260200160002060000160149054906101000a900460ff16156102d3576040517f08c379a00000000000000000000000000000000000000000000000000000000081526004016102ca90610c37565b60405180910390fd5b600060405180604001604052803373ffffffffffffffffffffffffffffffffffffffff16815260200160011515815250905080600160003373ffffffffffffffffffffffffffffffffffffffff1673ffffffffffffffffffffffffffffffffffffffff16815260200190815260200160002060008201518160000160006101000a81548173ffffffffffffffffffffffffffffffffffffffff021916908373ffffffffffffffffffffffffffffffffffffffff16021790555060208201518160000160146101000a81548160ff0219169083151502179055509050507f9fe37c9a85a4cac3290d857b0b43b8afa0bbad4876059c8e1419d6d871b3fd43336040516103de9190610c57565b60405180910390a150565b60016020528060005260406000206000915090508060000160009054906101000a900473ffffffffffffffffffffffffffffffffffffffff16908060000160149054906101000a900460ff16905082565b600160003373ffffffffffffffffffffffffffffffffffffffff1673ffffffffffffffffffffffffffffffffffffffff16815260200190815260200160002060000160149054906101000a900460ff166104c9576040517f08c379a00000000000000000000000000000000000000000000000000000000081526004016104c090610cbe565b60405180910390fd5b60005b600054811161055b578580519060200120600260008381526020019081526020016000206000016040516105009190610d81565b604051809103902003610548576040517f08c379a000000000000000000000000000000000000000000000000000000000815260040161053f90610e0a565b60405180910390fd5b808061055390610e59565b9150506104cc565b5060006040518060c0016040528087815260200186815260200185815260200184815260200160001515815260200183600181111561059d5761059c6107d5565b5b815250905080600260008054815260200190815260200160002060008201518160000190816105cc919061104d565b5060208201518160010190816105e2919061104d565b50604082015181600201556060820151816003015560808201518160040160006101000a81548160ff02191690831515021790555060a08201518160040160016101000a81548160ff02191690836001811115610642576106416107d5565b5b021790555090505060008081548092919061065c90610e59565b91905055507f49cb94e7d9a5343c1b6f9d204a2429b9ec84f610e0028abd5eff7f312e328fb46000548760405161069492919061111f565b60405180910390a1505050505050565b6000604051905090565b600080fd5b600080fd5b6000819050919050565b6106cb816106b8565b81146106d657600080fd5b50565b6000813590506106e8816106c2565b92915050565b600060208284031215610704576107036106ae565b5b6000610712848285016106d9565b91505092915050565b600081519050919050565b600082825260208201905092915050565b60005b8381101561075557808201518184015260208101905061073a565b60008484015250505050565b6000601f19601f8301169050919050565b600061077d8261071b565b6107878185610726565b9350610797818560208601610737565b6107a081610761565b840191505092915050565b6107b4816106b8565b82525050565b60008115159050919050565b6107cf816107ba565b82525050565b7f4e487b7100000000000000000000000000000000000000000000000000000000600052602160045260246000fd5b60028110610815576108146107d5565b5b50565b600081905061082682610804565b919050565b600061083682610818565b9050919050565b6108468161082b565b82525050565b600060c08201905081810360008301526108668189610772565b9050818103602083015261087a8188610772565b905061088960408301876107ab565b61089660608301866107ab565b6108a360808301856107c6565b6108b060a083018461083d565b979650505050505050565b600073ffffffffffffffffffffffffffffffffffffffff82169050919050565b60006108e6826108bb565b9050919050565b6108f6816108db565b811461090157600080fd5b50565b600081359050610913816108ed565b92915050565b60006020828403121561092f5761092e6106ae565b5b600061093d84828501610904565b91505092915050565b61094f816108db565b82525050565b600060408201905061096a6000830185610946565b61097760208301846107c6565b9392505050565b600080fd5b600080fd5b7f4e487b7100000000000000000000000000000000000000000000000000000000600052604160045260246000fd5b6109c082610761565b810181811067ffffffffffffffff821117156109df576109de610988565b5b80604052505050565b60006109f26106a4565b90506109fe82826109b7565b919050565b600067ffffffffffffffff821115610a1e57610a1d610988565b5b610a2782610761565b9050602081019050919050565b82818337600083830152505050565b6000610a56610a5184610a03565b6109e8565b905082815260208101848484011115610a7257610a71610983565b5b610a7d848285610a34565b509392505050565b600082601f830112610a9a57610a9961097e565b5b8135610aaa848260208601610a43565b91505092915050565b60028110610ac057600080fd5b50565b600081359050610ad281610ab3565b92915050565b600080600080600060a08688031215610af457610af36106ae565b5b600086013567ffffffffffffffff811115610b1257610b116106b3565b5b610b1e88828901610a85565b955050602086013567ffffffffffffffff811115610b3f57610b3e6106b3565b5b610b4b88828901610a85565b9450506040610b5c888289016106d9565b9350506060610b6d888289016106d9565b9250506080610b7e88828901610ac3565b9150509295509295909350565b7f4e487b7100000000000000000000000000000000000000000000000000000000600052602260045260246000fd5b60006002820490506001821680610bd257607f821691505b602082108103610be557610be4610b8b565b5b50919050565b7f5573657220697320616c72656164792020436f6e6e6563746564000000000000600082015250565b6000610c21601a83610726565b9150610c2c82610beb565b602082019050919050565b60006020820190508181036000830152610c5081610c14565b9050919050565b6000602082019050610c6c6000830184610946565b92915050565b7f55736572206973206e6f7420636f6e6e65637465640000000000000000000000600082015250565b6000610ca8601583610726565b9150610cb382610c72565b602082019050919050565b60006020820190508181036000830152610cd781610c9b565b9050919050565b600081905092915050565b60008190508160005260206000209050919050565b60008154610d0b81610bba565b610d158186610cde565b94506001821660008114610d305760018114610d4557610d78565b60ff1983168652811515820286019350610d78565b610d4e85610ce9565b60005b83811015610d7057815481890152600182019150602081019050610d51565b838801955050505b50505092915050565b6000610d8d8284610cfe565b915081905092915050565b7f41206368616d6120776974682074686973206e616d6520616c7265616479206560008201527f7869737473000000000000000000000000000000000000000000000000000000602082015250565b6000610df4602583610726565b9150610dff82610d98565b604082019050919050565b60006020820190508181036000830152610e2381610de7565b9050919050565b7f4e487b7100000000000000000000000000000000000000000000000000000000600052601160045260246000fd5b6000610e64826106b8565b91507fffffffffffffffffffffffffffffffffffffffffffffffffffffffffffffffff8203610e9657610e95610e2a565b5b600182019050919050565b60008190508160005260206000209050919050565b60006020601f8301049050919050565b600082821b905092915050565b600060088302610f037fffffffffffffffffffffffffffffffffffffffffffffffffffffffffffffffff82610ec6565b610f0d8683610ec6565b95508019841693508086168417925050509392505050565b6000819050919050565b6000610f4a610f45610f40846106b8565b610f25565b6106b8565b9050919050565b6000819050919050565b610f6483610f2f565b610f78610f7082610f51565b848454610ed3565b825550505050565b600090565b610f8d610f80565b610f98818484610f5b565b505050565b5b81811015610fbc57610fb1600082610f85565b600181019050610f9e565b5050565b601f82111561100157610fd281610ea1565b610fdb84610eb6565b81016020851015610fea578190505b610ffe610ff685610eb6565b830182610f9d565b50505b505050565b600082821c905092915050565b600061102460001984600802611006565b1980831691505092915050565b600061103d8383611013565b9150826002028217905092915050565b6110568261071b565b67ffffffffffffffff81111561106f5761106e610988565b5b6110798254610bba565b611084828285610fc0565b600060209050601f8311600181146110b757600084156110a5578287015190505b6110af8582611031565b865550611117565b601f1984166110c586610ea1565b60005b828110156110ed578489015182556001820191506020850194506020810190506110c8565b8683101561110a5784890151611106601f891682611013565b8355505b6001600288020188555050505b505050505050565b600060408201905061113460008301856107ab565b81810360208301526111468184610772565b9050939250505056fea2646970667358221220b88b3f3cdde02241cb0f56c19f0c4071023f771152f0792364d85a9eb01d02b864736f6c63430008130033",
  "linkReferences": {},
  "deployedLinkReferences": {}
}