{"contracts/hello.sol":{"CoinCircles":{"abi":[{"anonymous":false,"inputs":[{"indexed":true,"internalType":"address","name":"sender","type":"address"}],"name":"SayHello","type":"event"},{"inputs":[],"name":"Greeting","outputs":[],"stateMutability":"nonpayable","type":"function"}],"evm":{"bytecode":{"linkReferences":{},"object":"6080604052348015600f57600080fd5b5060b08061001e6000396000f3fe6080604052348015600f57600080fd5b506004361060285760003560e01c80637d40a30114602d575b600080fd5b60336035565b005b3373ffffffffffffffffffffffffffffffffffffffff167f427c62ac3dd69eb14c8bd7612d8e06fc99514947f69f7f17f120a209aa405dfa60405160405180910390a256fea2646970667358221220958eb8e5670977fe1c2e92e0791741f31241b1a7cd8ddb05f7e777683f57fce964736f6c63430008180033","opcodes":"PUSH1 0x80 PUSH1 0x40 MSTORE CALLVALUE DUP1 ISZERO PUSH1 0xF JUMPI PUSH1 0x0 DUP1 REVERT JUMPDEST POP PUSH1 0xB0 DUP1 PUSH2 0x1E PUSH1 0x0 CODECOPY PUSH1 0x0 RETURN INVALID PUSH1 0x80 PUSH1 0x40 MSTORE CALLVALUE DUP1 ISZERO PUSH1 0xF JUMPI PUSH1 0x0 DUP1 REVERT JUMPDEST POP PUSH1 0x4 CALLDATASIZE LT PUSH1 0x28 JUMPI PUSH1 0x0 CALLDATALOAD PUSH1 0xE0 SHR DUP1 PUSH4 0x7D40A301 EQ PUSH1 0x2D JUMPI JUMPDEST PUSH1 0x0 DUP1 REVERT JUMPDEST PUSH1 0x33 PUSH1 0x35 JUMP JUMPDEST STOP JUMPDEST CALLER PUSH20 0xFFFFFFFFFFFFFFFFFFFFFFFFFFFFFFFFFFFFFFFF AND PUSH32 0x427C62AC3DD69EB14C8BD7612D8E06FC99514947F69F7F17F120A209AA405DFA PUSH1 0x40 MLOAD PUSH1 0x40 MLOAD DUP1 SWAP2 SUB SWAP1 LOG2 JUMP INVALID LOG2 PUSH5 0x6970667358 0x22 SLT KECCAK256 SWAP6 DUP15 0xB8 0xE5 PUSH8 0x977FE1C2E92E079 OR COINBASE RETURN SLT COINBASE 0xB1 0xA7 0xCD DUP14 0xDB SDIV 0xF7 0xE7 PUSH24 0x683F57FCE964736F6C634300081800330000000000000000 "},"methodIdentifiers":{"Greeting()":"7d40a301"}}}}}