{"contracts/hello.sol":{"Hello":{"abi":[{"anonymous":false,"inputs":[{"indexed":true,"internalType":"address","name":"sender","type":"address"}],"name":"SayHello","type":"event"},{"inputs":[],"name":"Greeting","outputs":[],"stateMutability":"nonpayable","type":"function"}],"evm":{"bytecode":{"linkReferences":{},"object":"6080604052348015600f57600080fd5b5060b08061001e6000396000f3fe6080604052348015600f57600080fd5b506004361060285760003560e01c80637d40a30114602d575b600080fd5b60336035565b005b3373ffffffffffffffffffffffffffffffffffffffff167f427c62ac3dd69eb14c8bd7612d8e06fc99514947f69f7f17f120a209aa405dfa60405160405180910390a256fea26469706673582212209615f186c7f9b0512e15c0656e822710f590c0a6b40c04c402e61ee7c4bab94c64736f6c63430008180033","opcodes":"PUSH1 0x80 PUSH1 0x40 MSTORE CALLVALUE DUP1 ISZERO PUSH1 0xF JUMPI PUSH1 0x0 DUP1 REVERT JUMPDEST POP PUSH1 0xB0 DUP1 PUSH2 0x1E PUSH1 0x0 CODECOPY PUSH1 0x0 RETURN INVALID PUSH1 0x80 PUSH1 0x40 MSTORE CALLVALUE DUP1 ISZERO PUSH1 0xF JUMPI PUSH1 0x0 DUP1 REVERT JUMPDEST POP PUSH1 0x4 CALLDATASIZE LT PUSH1 0x28 JUMPI PUSH1 0x0 CALLDATALOAD PUSH1 0xE0 SHR DUP1 PUSH4 0x7D40A301 EQ PUSH1 0x2D JUMPI JUMPDEST PUSH1 0x0 DUP1 REVERT JUMPDEST PUSH1 0x33 PUSH1 0x35 JUMP JUMPDEST STOP JUMPDEST CALLER PUSH20 0xFFFFFFFFFFFFFFFFFFFFFFFFFFFFFFFFFFFFFFFF AND PUSH32 0x427C62AC3DD69EB14C8BD7612D8E06FC99514947F69F7F17F120A209AA405DFA PUSH1 0x40 MLOAD PUSH1 0x40 MLOAD DUP1 SWAP2 SUB SWAP1 LOG2 JUMP INVALID LOG2 PUSH5 0x6970667358 0x22 SLT KECCAK256 SWAP7 ISZERO CALL DUP7 0xC7 0xF9 0xB0 MLOAD 0x2E ISZERO 0xC0 PUSH6 0x6E822710F590 0xC0 0xA6 0xB4 0xC DIV 0xC4 MUL 0xE6 0x1E 0xE7 0xC4 0xBA 0xB9 0x4C PUSH5 0x736F6C6343 STOP ADDMOD XOR STOP CALLER "},"methodIdentifiers":{"Greeting()":"7d40a301"}}}}}