{"contracts/hello.sol":{"CoinCircles":{"abi":[{"anonymous":false,"inputs":[{"indexed":false,"internalType":"uint256","name":"chamaId","type":"uint256"},{"indexed":false,"internalType":"string","name":"name","type":"string"}],"name":"ChamaCreated","type":"event"},{"anonymous":false,"inputs":[{"indexed":false,"internalType":"address","name":"wallet_address","type":"address"}],"name":"UserConnected","type":"event"},{"inputs":[{"internalType":"uint256","name":"","type":"uint256"}],"name":"chamas","outputs":[{"internalType":"string","name":"name","type":"string"},{"internalType":"string","name":"purpose","type":"string"},{"internalType":"uint256","name":"maxNoOfPeople","type":"uint256"},{"internalType":"uint256","name":"minDeposit","type":"uint256"},{"internalType":"bool","name":"isFull","type":"bool"}],"stateMutability":"view","type":"function"},{"inputs":[],"name":"connect_user","outputs":[],"stateMutability":"nonpayable","type":"function"},{"inputs":[{"internalType":"string","name":"_name","type":"string"},{"internalType":"string","name":"_purpose","type":"string"},{"internalType":"uint256","name":"_maxNoPeople","type":"uint256"},{"internalType":"uint256","name":"_minDeposit","type":"uint256"}],"name":"create_chama","outputs":[],"stateMutability":"nonpayable","type":"function"},{"inputs":[{"internalType":"address","name":"","type":"address"}],"name":"users","outputs":[{"internalType":"address","name":"wallet_address","type":"address"},{"internalType":"bool","name":"isConnected","type":"bool"}],"stateMutability":"view","type":"function"}],"evm":{"bytecode":{"linkReferences":{},"object":"608060405234801561001057600080fd5b5061106a806100206000396000f3fe608060405234801561001057600080fd5b506004361061004c5760003560e01c80630b5d70851461005157806393520a4c146100855780639e0cf430146100a1578063a87430ba146100ab575b600080fd5b61006b60048036038101906100669190610691565b6100dc565b60405161007c959493929190610778565b60405180910390f35b61009f600480360381019061009a919061090e565b61022f565b005b6100a9610450565b005b6100c560048036038101906100c09190610a0b565b6105f6565b6040516100d3929190610a47565b60405180910390f35b60026020528060005260406000206000915090508060000180546100ff90610a9f565b80601f016020809104026020016040519081016040528092919081815260200182805461012b90610a9f565b80156101785780601f1061014d57610100808354040283529160200191610178565b820191906000526020600020905b81548152906001019060200180831161015b57829003601f168201915b50505050509080600101805461018d90610a9f565b80601f01602080910402602001604051908101604052809291908181526020018280546101b990610a9f565b80156102065780601f106101db57610100808354040283529160200191610206565b820191906000526020600020905b8154815290600101906020018083116101e957829003601f168201915b5050505050908060020154908060030154908060040160009054906101000a900460ff16905085565b600160003373ffffffffffffffffffffffffffffffffffffffff1673ffffffffffffffffffffffffffffffffffffffff16815260200190815260200160002060000160149054906101000a900460ff166102be576040517f08c379a00000000000000000000000000000000000000000000000000000000081526004016102b590610b1c565b60405180910390fd5b60005b6000548111610350578480519060200120600260008381526020019081526020016000206000016040516102f59190610bdf565b60405180910390200361033d576040517f08c379a000000000000000000000000000000000000000000000000000000000815260040161033490610c68565b60405180910390fd5b808061034890610cb7565b9150506102c1565b5060006040518060a0016040528086815260200185815260200184815260200183815260200160001515815250905080600260008054815260200190815260200160002060008201518160000190816103a99190610eab565b5060208201518160010190816103bf9190610eab565b50604082015181600201556060820151816003015560808201518160040160006101000a81548160ff02191690831515021790555090505060008081548092919061040990610cb7565b91905055507f49cb94e7d9a5343c1b6f9d204a2429b9ec84f610e0028abd5eff7f312e328fb460005486604051610441929190610f7d565b60405180910390a15050505050565b600160003373ffffffffffffffffffffffffffffffffffffffff1673ffffffffffffffffffffffffffffffffffffffff16815260200190815260200160002060000160149054906101000a900460ff16156104e0576040517f08c379a00000000000000000000000000000000000000000000000000000000081526004016104d790610ff9565b60405180910390fd5b600060405180604001604052803373ffffffffffffffffffffffffffffffffffffffff16815260200160011515815250905080600160003373ffffffffffffffffffffffffffffffffffffffff1673ffffffffffffffffffffffffffffffffffffffff16815260200190815260200160002060008201518160000160006101000a81548173ffffffffffffffffffffffffffffffffffffffff021916908373ffffffffffffffffffffffffffffffffffffffff16021790555060208201518160000160146101000a81548160ff0219169083151502179055509050507f9fe37c9a85a4cac3290d857b0b43b8afa0bbad4876059c8e1419d6d871b3fd43336040516105eb9190611019565b60405180910390a150565b60016020528060005260406000206000915090508060000160009054906101000a900473ffffffffffffffffffffffffffffffffffffffff16908060000160149054906101000a900460ff16905082565b6000604051905090565b600080fd5b600080fd5b6000819050919050565b61066e8161065b565b811461067957600080fd5b50565b60008135905061068b81610665565b92915050565b6000602082840312156106a7576106a6610651565b5b60006106b58482850161067c565b91505092915050565b600081519050919050565b600082825260208201905092915050565b60005b838110156106f85780820151818401526020810190506106dd565b60008484015250505050565b6000601f19601f8301169050919050565b6000610720826106be565b61072a81856106c9565b935061073a8185602086016106da565b61074381610704565b840191505092915050565b6107578161065b565b82525050565b60008115159050919050565b6107728161075d565b82525050565b600060a08201905081810360008301526107928188610715565b905081810360208301526107a68187610715565b90506107b5604083018661074e565b6107c2606083018561074e565b6107cf6080830184610769565b9695505050505050565b600080fd5b600080fd5b7f4e487b7100000000000000000000000000000000000000000000000000000000600052604160045260246000fd5b61081b82610704565b810181811067ffffffffffffffff8211171561083a576108396107e3565b5b80604052505050565b600061084d610647565b90506108598282610812565b919050565b600067ffffffffffffffff821115610879576108786107e3565b5b61088282610704565b9050602081019050919050565b82818337600083830152505050565b60006108b16108ac8461085e565b610843565b9050828152602081018484840111156108cd576108cc6107de565b5b6108d884828561088f565b509392505050565b600082601f8301126108f5576108f46107d9565b5b813561090584826020860161089e565b91505092915050565b6000806000806080858703121561092857610927610651565b5b600085013567ffffffffffffffff81111561094657610945610656565b5b610952878288016108e0565b945050602085013567ffffffffffffffff81111561097357610972610656565b5b61097f878288016108e0565b93505060406109908782880161067c565b92505060606109a18782880161067c565b91505092959194509250565b600073ffffffffffffffffffffffffffffffffffffffff82169050919050565b60006109d8826109ad565b9050919050565b6109e8816109cd565b81146109f357600080fd5b50565b600081359050610a05816109df565b92915050565b600060208284031215610a2157610a20610651565b5b6000610a2f848285016109f6565b91505092915050565b610a41816109cd565b82525050565b6000604082019050610a5c6000830185610a38565b610a696020830184610769565b9392505050565b7f4e487b7100000000000000000000000000000000000000000000000000000000600052602260045260246000fd5b60006002820490506001821680610ab757607f821691505b602082108103610aca57610ac9610a70565b5b50919050565b7f55736572206973206e6f7420636f6e6e65637465640000000000000000000000600082015250565b6000610b066015836106c9565b9150610b1182610ad0565b602082019050919050565b60006020820190508181036000830152610b3581610af9565b9050919050565b600081905092915050565b60008190508160005260206000209050919050565b60008154610b6981610a9f565b610b738186610b3c565b94506001821660008114610b8e5760018114610ba357610bd6565b60ff1983168652811515820286019350610bd6565b610bac85610b47565b60005b83811015610bce57815481890152600182019150602081019050610baf565b838801955050505b50505092915050565b6000610beb8284610b5c565b915081905092915050565b7f41206368616d6120776974682074686973206e616d6520616c7265616479206560008201527f7869737473000000000000000000000000000000000000000000000000000000602082015250565b6000610c526025836106c9565b9150610c5d82610bf6565b604082019050919050565b60006020820190508181036000830152610c8181610c45565b9050919050565b7f4e487b7100000000000000000000000000000000000000000000000000000000600052601160045260246000fd5b6000610cc28261065b565b91507fffffffffffffffffffffffffffffffffffffffffffffffffffffffffffffffff8203610cf457610cf3610c88565b5b600182019050919050565b60008190508160005260206000209050919050565b60006020601f8301049050919050565b600082821b905092915050565b600060088302610d617fffffffffffffffffffffffffffffffffffffffffffffffffffffffffffffffff82610d24565b610d6b8683610d24565b95508019841693508086168417925050509392505050565b6000819050919050565b6000610da8610da3610d9e8461065b565b610d83565b61065b565b9050919050565b6000819050919050565b610dc283610d8d565b610dd6610dce82610daf565b848454610d31565b825550505050565b600090565b610deb610dde565b610df6818484610db9565b505050565b5b81811015610e1a57610e0f600082610de3565b600181019050610dfc565b5050565b601f821115610e5f57610e3081610cff565b610e3984610d14565b81016020851015610e48578190505b610e5c610e5485610d14565b830182610dfb565b50505b505050565b600082821c905092915050565b6000610e8260001984600802610e64565b1980831691505092915050565b6000610e9b8383610e71565b9150826002028217905092915050565b610eb4826106be565b67ffffffffffffffff811115610ecd57610ecc6107e3565b5b610ed78254610a9f565b610ee2828285610e1e565b600060209050601f831160018114610f155760008415610f03578287015190505b610f0d8582610e8f565b865550610f75565b601f198416610f2386610cff565b60005b82811015610f4b57848901518255600182019150602085019450602081019050610f26565b86831015610f685784890151610f64601f891682610e71565b8355505b6001600288020188555050505b505050505050565b6000604082019050610f92600083018561074e565b8181036020830152610fa48184610715565b90509392505050565b7f5573657220697320616c72656164792020436f6e6e6563746564000000000000600082015250565b6000610fe3601a836106c9565b9150610fee82610fad565b602082019050919050565b6000602082019050818103600083015261101281610fd6565b9050919050565b600060208201905061102e6000830184610a38565b9291505056fea264697066735822122024212e8823fdb7a6feb8d641543e97c24fe2712a58f9b6f6053e93c3684255e064736f6c63430008130033","opcodes":"PUSH1 0x80 PUSH1 0x40 MSTORE CALLVALUE DUP1 ISZERO PUSH2 0x10 JUMPI PUSH1 0x0 DUP1 REVERT JUMPDEST POP PUSH2 0x106A DUP1 PUSH2 0x20 PUSH1 0x0 CODECOPY PUSH1 0x0 RETURN INVALID PUSH1 0x80 PUSH1 0x40 MSTORE CALLVALUE DUP1 ISZERO PUSH2 0x10 JUMPI PUSH1 0x0 DUP1 REVERT JUMPDEST POP PUSH1 0x4 CALLDATASIZE LT PUSH2 0x4C JUMPI PUSH1 0x0 CALLDATALOAD PUSH1 0xE0 SHR DUP1 PUSH4 0xB5D7085 EQ PUSH2 0x51 JUMPI DUP1 PUSH4 0x93520A4C EQ PUSH2 0x85 JUMPI DUP1 PUSH4 0x9E0CF430 EQ PUSH2 0xA1 JUMPI DUP1 PUSH4 0xA87430BA EQ PUSH2 0xAB JUMPI JUMPDEST PUSH1 0x0 DUP1 REVERT JUMPDEST PUSH2 0x6B PUSH1 0x4 DUP1 CALLDATASIZE SUB DUP2 ADD SWAP1 PUSH2 0x66 SWAP2 SWAP1 PUSH2 0x691 JUMP JUMPDEST PUSH2 0xDC JUMP JUMPDEST PUSH1 0x40 MLOAD PUSH2 0x7C SWAP6 SWAP5 SWAP4 SWAP3 SWAP2 SWAP1 PUSH2 0x778 JUMP JUMPDEST PUSH1 0x40 MLOAD DUP1 SWAP2 SUB SWAP1 RETURN JUMPDEST PUSH2 0x9F PUSH1 0x4 DUP1 CALLDATASIZE SUB DUP2 ADD SWAP1 PUSH2 0x9A SWAP2 SWAP1 PUSH2 0x90E JUMP JUMPDEST PUSH2 0x22F JUMP JUMPDEST STOP JUMPDEST PUSH2 0xA9 PUSH2 0x450 JUMP JUMPDEST STOP JUMPDEST PUSH2 0xC5 PUSH1 0x4 DUP1 CALLDATASIZE SUB DUP2 ADD SWAP1 PUSH2 0xC0 SWAP2 SWAP1 PUSH2 0xA0B JUMP JUMPDEST PUSH2 0x5F6 JUMP JUMPDEST PUSH1 0x40 MLOAD PUSH2 0xD3 SWAP3 SWAP2 SWAP1 PUSH2 0xA47 JUMP JUMPDEST PUSH1 0x40 MLOAD DUP1 SWAP2 SUB SWAP1 RETURN JUMPDEST PUSH1 0x2 PUSH1 0x20 MSTORE DUP1 PUSH1 0x0 MSTORE PUSH1 0x40 PUSH1 0x0 KECCAK256 PUSH1 0x0 SWAP2 POP SWAP1 POP DUP1 PUSH1 0x0 ADD DUP1 SLOAD PUSH2 0xFF SWAP1 PUSH2 0xA9F JUMP JUMPDEST DUP1 PUSH1 0x1F ADD PUSH1 0x20 DUP1 SWAP2 DIV MUL PUSH1 0x20 ADD PUSH1 0x40 MLOAD SWAP1 DUP2 ADD PUSH1 0x40 MSTORE DUP1 SWAP3 SWAP2 SWAP1 DUP2 DUP2 MSTORE PUSH1 0x20 ADD DUP3 DUP1 SLOAD PUSH2 0x12B SWAP1 PUSH2 0xA9F JUMP JUMPDEST DUP1 ISZERO PUSH2 0x178 JUMPI DUP1 PUSH1 0x1F LT PUSH2 0x14D JUMPI PUSH2 0x100 DUP1 DUP4 SLOAD DIV MUL DUP4 MSTORE SWAP2 PUSH1 0x20 ADD SWAP2 PUSH2 0x178 JUMP JUMPDEST DUP3 ADD SWAP2 SWAP1 PUSH1 0x0 MSTORE PUSH1 0x20 PUSH1 0x0 KECCAK256 SWAP1 JUMPDEST DUP2 SLOAD DUP2 MSTORE SWAP1 PUSH1 0x1 ADD SWAP1 PUSH1 0x20 ADD DUP1 DUP4 GT PUSH2 0x15B JUMPI DUP3 SWAP1 SUB PUSH1 0x1F AND DUP3 ADD SWAP2 JUMPDEST POP POP POP POP POP SWAP1 DUP1 PUSH1 0x1 ADD DUP1 SLOAD PUSH2 0x18D SWAP1 PUSH2 0xA9F JUMP JUMPDEST DUP1 PUSH1 0x1F ADD PUSH1 0x20 DUP1 SWAP2 DIV MUL PUSH1 0x20 ADD PUSH1 0x40 MLOAD SWAP1 DUP2 ADD PUSH1 0x40 MSTORE DUP1 SWAP3 SWAP2 SWAP1 DUP2 DUP2 MSTORE PUSH1 0x20 ADD DUP3 DUP1 SLOAD PUSH2 0x1B9 SWAP1 PUSH2 0xA9F JUMP JUMPDEST DUP1 ISZERO PUSH2 0x206 JUMPI DUP1 PUSH1 0x1F LT PUSH2 0x1DB JUMPI PUSH2 0x100 DUP1 DUP4 SLOAD DIV MUL DUP4 MSTORE SWAP2 PUSH1 0x20 ADD SWAP2 PUSH2 0x206 JUMP JUMPDEST DUP3 ADD SWAP2 SWAP1 PUSH1 0x0 MSTORE PUSH1 0x20 PUSH1 0x0 KECCAK256 SWAP1 JUMPDEST DUP2 SLOAD DUP2 MSTORE SWAP1 PUSH1 0x1 ADD SWAP1 PUSH1 0x20 ADD DUP1 DUP4 GT PUSH2 0x1E9 JUMPI DUP3 SWAP1 SUB PUSH1 0x1F AND DUP3 ADD SWAP2 JUMPDEST POP POP POP POP POP SWAP1 DUP1 PUSH1 0x2 ADD SLOAD SWAP1 DUP1 PUSH1 0x3 ADD SLOAD SWAP1 DUP1 PUSH1 0x4 ADD PUSH1 0x0 SWAP1 SLOAD SWAP1 PUSH2 0x100 EXP SWAP1 DIV PUSH1 0xFF AND SWAP1 POP DUP6 JUMP JUMPDEST PUSH1 0x1 PUSH1 0x0 CALLER PUSH20 0xFFFFFFFFFFFFFFFFFFFFFFFFFFFFFFFFFFFFFFFF AND PUSH20 0xFFFFFFFFFFFFFFFFFFFFFFFFFFFFFFFFFFFFFFFF AND DUP2 MSTORE PUSH1 0x20 ADD SWAP1 DUP2 MSTORE PUSH1 0x20 ADD PUSH1 0x0 KECCAK256 PUSH1 0x0 ADD PUSH1 0x14 SWAP1 SLOAD SWAP1 PUSH2 0x100 EXP SWAP1 DIV PUSH1 0xFF AND PUSH2 0x2BE JUMPI PUSH1 0x40 MLOAD PUSH32 0x8C379A000000000000000000000000000000000000000000000000000000000 DUP2 MSTORE PUSH1 0x4 ADD PUSH2 0x2B5 SWAP1 PUSH2 0xB1C JUMP JUMPDEST PUSH1 0x40 MLOAD DUP1 SWAP2 SUB SWAP1 REVERT JUMPDEST PUSH1 0x0 JUMPDEST PUSH1 0x0 SLOAD DUP2 GT PUSH2 0x350 JUMPI DUP5 DUP1 MLOAD SWAP1 PUSH1 0x20 ADD KECCAK256 PUSH1 0x2 PUSH1 0x0 DUP4 DUP2 MSTORE PUSH1 0x20 ADD SWAP1 DUP2 MSTORE PUSH1 0x20 ADD PUSH1 0x0 KECCAK256 PUSH1 0x0 ADD PUSH1 0x40 MLOAD PUSH2 0x2F5 SWAP2 SWAP1 PUSH2 0xBDF JUMP JUMPDEST PUSH1 0x40 MLOAD DUP1 SWAP2 SUB SWAP1 KECCAK256 SUB PUSH2 0x33D JUMPI PUSH1 0x40 MLOAD PUSH32 0x8C379A000000000000000000000000000000000000000000000000000000000 DUP2 MSTORE PUSH1 0x4 ADD PUSH2 0x334 SWAP1 PUSH2 0xC68 JUMP JUMPDEST PUSH1 0x40 MLOAD DUP1 SWAP2 SUB SWAP1 REVERT JUMPDEST DUP1 DUP1 PUSH2 0x348 SWAP1 PUSH2 0xCB7 JUMP JUMPDEST SWAP2 POP POP PUSH2 0x2C1 JUMP JUMPDEST POP PUSH1 0x0 PUSH1 0x40 MLOAD DUP1 PUSH1 0xA0 ADD PUSH1 0x40 MSTORE DUP1 DUP7 DUP2 MSTORE PUSH1 0x20 ADD DUP6 DUP2 MSTORE PUSH1 0x20 ADD DUP5 DUP2 MSTORE PUSH1 0x20 ADD DUP4 DUP2 MSTORE PUSH1 0x20 ADD PUSH1 0x0 ISZERO ISZERO DUP2 MSTORE POP SWAP1 POP DUP1 PUSH1 0x2 PUSH1 0x0 DUP1 SLOAD DUP2 MSTORE PUSH1 0x20 ADD SWAP1 DUP2 MSTORE PUSH1 0x20 ADD PUSH1 0x0 KECCAK256 PUSH1 0x0 DUP3 ADD MLOAD DUP2 PUSH1 0x0 ADD SWAP1 DUP2 PUSH2 0x3A9 SWAP2 SWAP1 PUSH2 0xEAB JUMP JUMPDEST POP PUSH1 0x20 DUP3 ADD MLOAD DUP2 PUSH1 0x1 ADD SWAP1 DUP2 PUSH2 0x3BF SWAP2 SWAP1 PUSH2 0xEAB JUMP JUMPDEST POP PUSH1 0x40 DUP3 ADD MLOAD DUP2 PUSH1 0x2 ADD SSTORE PUSH1 0x60 DUP3 ADD MLOAD DUP2 PUSH1 0x3 ADD SSTORE PUSH1 0x80 DUP3 ADD MLOAD DUP2 PUSH1 0x4 ADD PUSH1 0x0 PUSH2 0x100 EXP DUP2 SLOAD DUP2 PUSH1 0xFF MUL NOT AND SWAP1 DUP4 ISZERO ISZERO MUL OR SWAP1 SSTORE POP SWAP1 POP POP PUSH1 0x0 DUP1 DUP2 SLOAD DUP1 SWAP3 SWAP2 SWAP1 PUSH2 0x409 SWAP1 PUSH2 0xCB7 JUMP JUMPDEST SWAP2 SWAP1 POP SSTORE POP PUSH32 0x49CB94E7D9A5343C1B6F9D204A2429B9EC84F610E0028ABD5EFF7F312E328FB4 PUSH1 0x0 SLOAD DUP7 PUSH1 0x40 MLOAD PUSH2 0x441 SWAP3 SWAP2 SWAP1 PUSH2 0xF7D JUMP JUMPDEST PUSH1 0x40 MLOAD DUP1 SWAP2 SUB SWAP1 LOG1 POP POP POP POP POP JUMP JUMPDEST PUSH1 0x1 PUSH1 0x0 CALLER PUSH20 0xFFFFFFFFFFFFFFFFFFFFFFFFFFFFFFFFFFFFFFFF AND PUSH20 0xFFFFFFFFFFFFFFFFFFFFFFFFFFFFFFFFFFFFFFFF AND DUP2 MSTORE PUSH1 0x20 ADD SWAP1 DUP2 MSTORE PUSH1 0x20 ADD PUSH1 0x0 KECCAK256 PUSH1 0x0 ADD PUSH1 0x14 SWAP1 SLOAD SWAP1 PUSH2 0x100 EXP SWAP1 DIV PUSH1 0xFF AND ISZERO PUSH2 0x4E0 JUMPI PUSH1 0x40 MLOAD PUSH32 0x8C379A000000000000000000000000000000000000000000000000000000000 DUP2 MSTORE PUSH1 0x4 ADD PUSH2 0x4D7 SWAP1 PUSH2 0xFF9 JUMP JUMPDEST PUSH1 0x40 MLOAD DUP1 SWAP2 SUB SWAP1 REVERT JUMPDEST PUSH1 0x0 PUSH1 0x40 MLOAD DUP1 PUSH1 0x40 ADD PUSH1 0x40 MSTORE DUP1 CALLER PUSH20 0xFFFFFFFFFFFFFFFFFFFFFFFFFFFFFFFFFFFFFFFF AND DUP2 MSTORE PUSH1 0x20 ADD PUSH1 0x1 ISZERO ISZERO DUP2 MSTORE POP SWAP1 POP DUP1 PUSH1 0x1 PUSH1 0x0 CALLER PUSH20 0xFFFFFFFFFFFFFFFFFFFFFFFFFFFFFFFFFFFFFFFF AND PUSH20 0xFFFFFFFFFFFFFFFFFFFFFFFFFFFFFFFFFFFFFFFF AND DUP2 MSTORE PUSH1 0x20 ADD SWAP1 DUP2 MSTORE PUSH1 0x20 ADD PUSH1 0x0 KECCAK256 PUSH1 0x0 DUP3 ADD MLOAD DUP2 PUSH1 0x0 ADD PUSH1 0x0 PUSH2 0x100 EXP DUP2 SLOAD DUP2 PUSH20 0xFFFFFFFFFFFFFFFFFFFFFFFFFFFFFFFFFFFFFFFF MUL NOT AND SWAP1 DUP4 PUSH20 0xFFFFFFFFFFFFFFFFFFFFFFFFFFFFFFFFFFFFFFFF AND MUL OR SWAP1 SSTORE POP PUSH1 0x20 DUP3 ADD MLOAD DUP2 PUSH1 0x0 ADD PUSH1 0x14 PUSH2 0x100 EXP DUP2 SLOAD DUP2 PUSH1 0xFF MUL NOT AND SWAP1 DUP4 ISZERO ISZERO MUL OR SWAP1 SSTORE POP SWAP1 POP POP PUSH32 0x9FE37C9A85A4CAC3290D857B0B43B8AFA0BBAD4876059C8E1419D6D871B3FD43 CALLER PUSH1 0x40 MLOAD PUSH2 0x5EB SWAP2 SWAP1 PUSH2 0x1019 JUMP JUMPDEST PUSH1 0x40 MLOAD DUP1 SWAP2 SUB SWAP1 LOG1 POP JUMP JUMPDEST PUSH1 0x1 PUSH1 0x20 MSTORE DUP1 PUSH1 0x0 MSTORE PUSH1 0x40 PUSH1 0x0 KECCAK256 PUSH1 0x0 SWAP2 POP SWAP1 POP DUP1 PUSH1 0x0 ADD PUSH1 0x0 SWAP1 SLOAD SWAP1 PUSH2 0x100 EXP SWAP1 DIV PUSH20 0xFFFFFFFFFFFFFFFFFFFFFFFFFFFFFFFFFFFFFFFF AND SWAP1 DUP1 PUSH1 0x0 ADD PUSH1 0x14 SWAP1 SLOAD SWAP1 PUSH2 0x100 EXP SWAP1 DIV PUSH1 0xFF AND SWAP1 POP DUP3 JUMP JUMPDEST PUSH1 0x0 PUSH1 0x40 MLOAD SWAP1 POP SWAP1 JUMP JUMPDEST PUSH1 0x0 DUP1 REVERT JUMPDEST PUSH1 0x0 DUP1 REVERT JUMPDEST PUSH1 0x0 DUP2 SWAP1 POP SWAP2 SWAP1 POP JUMP JUMPDEST PUSH2 0x66E DUP2 PUSH2 0x65B JUMP JUMPDEST DUP2 EQ PUSH2 0x679 JUMPI PUSH1 0x0 DUP1 REVERT JUMPDEST POP JUMP JUMPDEST PUSH1 0x0 DUP2 CALLDATALOAD SWAP1 POP PUSH2 0x68B DUP2 PUSH2 0x665 JUMP JUMPDEST SWAP3 SWAP2 POP POP JUMP JUMPDEST PUSH1 0x0 PUSH1 0x20 DUP3 DUP5 SUB SLT ISZERO PUSH2 0x6A7 JUMPI PUSH2 0x6A6 PUSH2 0x651 JUMP JUMPDEST JUMPDEST PUSH1 0x0 PUSH2 0x6B5 DUP5 DUP3 DUP6 ADD PUSH2 0x67C JUMP JUMPDEST SWAP2 POP POP SWAP3 SWAP2 POP POP JUMP JUMPDEST PUSH1 0x0 DUP2 MLOAD SWAP1 POP SWAP2 SWAP1 POP JUMP JUMPDEST PUSH1 0x0 DUP3 DUP3 MSTORE PUSH1 0x20 DUP3 ADD SWAP1 POP SWAP3 SWAP2 POP POP JUMP JUMPDEST PUSH1 0x0 JUMPDEST DUP4 DUP2 LT ISZERO PUSH2 0x6F8 JUMPI DUP1 DUP3 ADD MLOAD DUP2 DUP5 ADD MSTORE PUSH1 0x20 DUP2 ADD SWAP1 POP PUSH2 0x6DD JUMP JUMPDEST PUSH1 0x0 DUP5 DUP5 ADD MSTORE POP POP POP POP JUMP JUMPDEST PUSH1 0x0 PUSH1 0x1F NOT PUSH1 0x1F DUP4 ADD AND SWAP1 POP SWAP2 SWAP1 POP JUMP JUMPDEST PUSH1 0x0 PUSH2 0x720 DUP3 PUSH2 0x6BE JUMP JUMPDEST PUSH2 0x72A DUP2 DUP6 PUSH2 0x6C9 JUMP JUMPDEST SWAP4 POP PUSH2 0x73A DUP2 DUP6 PUSH1 0x20 DUP7 ADD PUSH2 0x6DA JUMP JUMPDEST PUSH2 0x743 DUP2 PUSH2 0x704 JUMP JUMPDEST DUP5 ADD SWAP2 POP POP SWAP3 SWAP2 POP POP JUMP JUMPDEST PUSH2 0x757 DUP2 PUSH2 0x65B JUMP JUMPDEST DUP3 MSTORE POP POP JUMP JUMPDEST PUSH1 0x0 DUP2 ISZERO ISZERO SWAP1 POP SWAP2 SWAP1 POP JUMP JUMPDEST PUSH2 0x772 DUP2 PUSH2 0x75D JUMP JUMPDEST DUP3 MSTORE POP POP JUMP JUMPDEST PUSH1 0x0 PUSH1 0xA0 DUP3 ADD SWAP1 POP DUP2 DUP2 SUB PUSH1 0x0 DUP4 ADD MSTORE PUSH2 0x792 DUP2 DUP9 PUSH2 0x715 JUMP JUMPDEST SWAP1 POP DUP2 DUP2 SUB PUSH1 0x20 DUP4 ADD MSTORE PUSH2 0x7A6 DUP2 DUP8 PUSH2 0x715 JUMP JUMPDEST SWAP1 POP PUSH2 0x7B5 PUSH1 0x40 DUP4 ADD DUP7 PUSH2 0x74E JUMP JUMPDEST PUSH2 0x7C2 PUSH1 0x60 DUP4 ADD DUP6 PUSH2 0x74E JUMP JUMPDEST PUSH2 0x7CF PUSH1 0x80 DUP4 ADD DUP5 PUSH2 0x769 JUMP JUMPDEST SWAP7 SWAP6 POP POP POP POP POP POP JUMP JUMPDEST PUSH1 0x0 DUP1 REVERT JUMPDEST PUSH1 0x0 DUP1 REVERT JUMPDEST PUSH32 0x4E487B7100000000000000000000000000000000000000000000000000000000 PUSH1 0x0 MSTORE PUSH1 0x41 PUSH1 0x4 MSTORE PUSH1 0x24 PUSH1 0x0 REVERT JUMPDEST PUSH2 0x81B DUP3 PUSH2 0x704 JUMP JUMPDEST DUP2 ADD DUP2 DUP2 LT PUSH8 0xFFFFFFFFFFFFFFFF DUP3 GT OR ISZERO PUSH2 0x83A JUMPI PUSH2 0x839 PUSH2 0x7E3 JUMP JUMPDEST JUMPDEST DUP1 PUSH1 0x40 MSTORE POP POP POP JUMP JUMPDEST PUSH1 0x0 PUSH2 0x84D PUSH2 0x647 JUMP JUMPDEST SWAP1 POP PUSH2 0x859 DUP3 DUP3 PUSH2 0x812 JUMP JUMPDEST SWAP2 SWAP1 POP JUMP JUMPDEST PUSH1 0x0 PUSH8 0xFFFFFFFFFFFFFFFF DUP3 GT ISZERO PUSH2 0x879 JUMPI PUSH2 0x878 PUSH2 0x7E3 JUMP JUMPDEST JUMPDEST PUSH2 0x882 DUP3 PUSH2 0x704 JUMP JUMPDEST SWAP1 POP PUSH1 0x20 DUP2 ADD SWAP1 POP SWAP2 SWAP1 POP JUMP JUMPDEST DUP3 DUP2 DUP4 CALLDATACOPY PUSH1 0x0 DUP4 DUP4 ADD MSTORE POP POP POP JUMP JUMPDEST PUSH1 0x0 PUSH2 0x8B1 PUSH2 0x8AC DUP5 PUSH2 0x85E JUMP JUMPDEST PUSH2 0x843 JUMP JUMPDEST SWAP1 POP DUP3 DUP2 MSTORE PUSH1 0x20 DUP2 ADD DUP5 DUP5 DUP5 ADD GT ISZERO PUSH2 0x8CD JUMPI PUSH2 0x8CC PUSH2 0x7DE JUMP JUMPDEST JUMPDEST PUSH2 0x8D8 DUP5 DUP3 DUP6 PUSH2 0x88F JUMP JUMPDEST POP SWAP4 SWAP3 POP POP POP JUMP JUMPDEST PUSH1 0x0 DUP3 PUSH1 0x1F DUP4 ADD SLT PUSH2 0x8F5 JUMPI PUSH2 0x8F4 PUSH2 0x7D9 JUMP JUMPDEST JUMPDEST DUP2 CALLDATALOAD PUSH2 0x905 DUP5 DUP3 PUSH1 0x20 DUP7 ADD PUSH2 0x89E JUMP JUMPDEST SWAP2 POP POP SWAP3 SWAP2 POP POP JUMP JUMPDEST PUSH1 0x0 DUP1 PUSH1 0x0 DUP1 PUSH1 0x80 DUP6 DUP8 SUB SLT ISZERO PUSH2 0x928 JUMPI PUSH2 0x927 PUSH2 0x651 JUMP JUMPDEST JUMPDEST PUSH1 0x0 DUP6 ADD CALLDATALOAD PUSH8 0xFFFFFFFFFFFFFFFF DUP2 GT ISZERO PUSH2 0x946 JUMPI PUSH2 0x945 PUSH2 0x656 JUMP JUMPDEST JUMPDEST PUSH2 0x952 DUP8 DUP3 DUP9 ADD PUSH2 0x8E0 JUMP JUMPDEST SWAP5 POP POP PUSH1 0x20 DUP6 ADD CALLDATALOAD PUSH8 0xFFFFFFFFFFFFFFFF DUP2 GT ISZERO PUSH2 0x973 JUMPI PUSH2 0x972 PUSH2 0x656 JUMP JUMPDEST JUMPDEST PUSH2 0x97F DUP8 DUP3 DUP9 ADD PUSH2 0x8E0 JUMP JUMPDEST SWAP4 POP POP PUSH1 0x40 PUSH2 0x990 DUP8 DUP3 DUP9 ADD PUSH2 0x67C JUMP JUMPDEST SWAP3 POP POP PUSH1 0x60 PUSH2 0x9A1 DUP8 DUP3 DUP9 ADD PUSH2 0x67C JUMP JUMPDEST SWAP2 POP POP SWAP3 SWAP6 SWAP2 SWAP5 POP SWAP3 POP JUMP JUMPDEST PUSH1 0x0 PUSH20 0xFFFFFFFFFFFFFFFFFFFFFFFFFFFFFFFFFFFFFFFF DUP3 AND SWAP1 POP SWAP2 SWAP1 POP JUMP JUMPDEST PUSH1 0x0 PUSH2 0x9D8 DUP3 PUSH2 0x9AD JUMP JUMPDEST SWAP1 POP SWAP2 SWAP1 POP JUMP JUMPDEST PUSH2 0x9E8 DUP2 PUSH2 0x9CD JUMP JUMPDEST DUP2 EQ PUSH2 0x9F3 JUMPI PUSH1 0x0 DUP1 REVERT JUMPDEST POP JUMP JUMPDEST PUSH1 0x0 DUP2 CALLDATALOAD SWAP1 POP PUSH2 0xA05 DUP2 PUSH2 0x9DF JUMP JUMPDEST SWAP3 SWAP2 POP POP JUMP JUMPDEST PUSH1 0x0 PUSH1 0x20 DUP3 DUP5 SUB SLT ISZERO PUSH2 0xA21 JUMPI PUSH2 0xA20 PUSH2 0x651 JUMP JUMPDEST JUMPDEST PUSH1 0x0 PUSH2 0xA2F DUP5 DUP3 DUP6 ADD PUSH2 0x9F6 JUMP JUMPDEST SWAP2 POP POP SWAP3 SWAP2 POP POP JUMP JUMPDEST PUSH2 0xA41 DUP2 PUSH2 0x9CD JUMP JUMPDEST DUP3 MSTORE POP POP JUMP JUMPDEST PUSH1 0x0 PUSH1 0x40 DUP3 ADD SWAP1 POP PUSH2 0xA5C PUSH1 0x0 DUP4 ADD DUP6 PUSH2 0xA38 JUMP JUMPDEST PUSH2 0xA69 PUSH1 0x20 DUP4 ADD DUP5 PUSH2 0x769 JUMP JUMPDEST SWAP4 SWAP3 POP POP POP JUMP JUMPDEST PUSH32 0x4E487B7100000000000000000000000000000000000000000000000000000000 PUSH1 0x0 MSTORE PUSH1 0x22 PUSH1 0x4 MSTORE PUSH1 0x24 PUSH1 0x0 REVERT JUMPDEST PUSH1 0x0 PUSH1 0x2 DUP3 DIV SWAP1 POP PUSH1 0x1 DUP3 AND DUP1 PUSH2 0xAB7 JUMPI PUSH1 0x7F DUP3 AND SWAP2 POP JUMPDEST PUSH1 0x20 DUP3 LT DUP2 SUB PUSH2 0xACA JUMPI PUSH2 0xAC9 PUSH2 0xA70 JUMP JUMPDEST JUMPDEST POP SWAP2 SWAP1 POP JUMP JUMPDEST PUSH32 0x55736572206973206E6F7420636F6E6E65637465640000000000000000000000 PUSH1 0x0 DUP3 ADD MSTORE POP JUMP JUMPDEST PUSH1 0x0 PUSH2 0xB06 PUSH1 0x15 DUP4 PUSH2 0x6C9 JUMP JUMPDEST SWAP2 POP PUSH2 0xB11 DUP3 PUSH2 0xAD0 JUMP JUMPDEST PUSH1 0x20 DUP3 ADD SWAP1 POP SWAP2 SWAP1 POP JUMP JUMPDEST PUSH1 0x0 PUSH1 0x20 DUP3 ADD SWAP1 POP DUP2 DUP2 SUB PUSH1 0x0 DUP4 ADD MSTORE PUSH2 0xB35 DUP2 PUSH2 0xAF9 JUMP JUMPDEST SWAP1 POP SWAP2 SWAP1 POP JUMP JUMPDEST PUSH1 0x0 DUP2 SWAP1 POP SWAP3 SWAP2 POP POP JUMP JUMPDEST PUSH1 0x0 DUP2 SWAP1 POP DUP2 PUSH1 0x0 MSTORE PUSH1 0x20 PUSH1 0x0 KECCAK256 SWAP1 POP SWAP2 SWAP1 POP JUMP JUMPDEST PUSH1 0x0 DUP2 SLOAD PUSH2 0xB69 DUP2 PUSH2 0xA9F JUMP JUMPDEST PUSH2 0xB73 DUP2 DUP7 PUSH2 0xB3C JUMP JUMPDEST SWAP5 POP PUSH1 0x1 DUP3 AND PUSH1 0x0 DUP2 EQ PUSH2 0xB8E JUMPI PUSH1 0x1 DUP2 EQ PUSH2 0xBA3 JUMPI PUSH2 0xBD6 JUMP JUMPDEST PUSH1 0xFF NOT DUP4 AND DUP7 MSTORE DUP2 ISZERO ISZERO DUP3 MUL DUP7 ADD SWAP4 POP PUSH2 0xBD6 JUMP JUMPDEST PUSH2 0xBAC DUP6 PUSH2 0xB47 JUMP JUMPDEST PUSH1 0x0 JUMPDEST DUP4 DUP2 LT ISZERO PUSH2 0xBCE JUMPI DUP2 SLOAD DUP2 DUP10 ADD MSTORE PUSH1 0x1 DUP3 ADD SWAP2 POP PUSH1 0x20 DUP2 ADD SWAP1 POP PUSH2 0xBAF JUMP JUMPDEST DUP4 DUP9 ADD SWAP6 POP POP POP JUMPDEST POP POP POP SWAP3 SWAP2 POP POP JUMP JUMPDEST PUSH1 0x0 PUSH2 0xBEB DUP3 DUP5 PUSH2 0xB5C JUMP JUMPDEST SWAP2 POP DUP2 SWAP1 POP SWAP3 SWAP2 POP POP JUMP JUMPDEST PUSH32 0x41206368616D6120776974682074686973206E616D6520616C72656164792065 PUSH1 0x0 DUP3 ADD MSTORE PUSH32 0x7869737473000000000000000000000000000000000000000000000000000000 PUSH1 0x20 DUP3 ADD MSTORE POP JUMP JUMPDEST PUSH1 0x0 PUSH2 0xC52 PUSH1 0x25 DUP4 PUSH2 0x6C9 JUMP JUMPDEST SWAP2 POP PUSH2 0xC5D DUP3 PUSH2 0xBF6 JUMP JUMPDEST PUSH1 0x40 DUP3 ADD SWAP1 POP SWAP2 SWAP1 POP JUMP JUMPDEST PUSH1 0x0 PUSH1 0x20 DUP3 ADD SWAP1 POP DUP2 DUP2 SUB PUSH1 0x0 DUP4 ADD MSTORE PUSH2 0xC81 DUP2 PUSH2 0xC45 JUMP JUMPDEST SWAP1 POP SWAP2 SWAP1 POP JUMP JUMPDEST PUSH32 0x4E487B7100000000000000000000000000000000000000000000000000000000 PUSH1 0x0 MSTORE PUSH1 0x11 PUSH1 0x4 MSTORE PUSH1 0x24 PUSH1 0x0 REVERT JUMPDEST PUSH1 0x0 PUSH2 0xCC2 DUP3 PUSH2 0x65B JUMP JUMPDEST SWAP2 POP PUSH32 0xFFFFFFFFFFFFFFFFFFFFFFFFFFFFFFFFFFFFFFFFFFFFFFFFFFFFFFFFFFFFFFFF DUP3 SUB PUSH2 0xCF4 JUMPI PUSH2 0xCF3 PUSH2 0xC88 JUMP JUMPDEST JUMPDEST PUSH1 0x1 DUP3 ADD SWAP1 POP SWAP2 SWAP1 POP JUMP JUMPDEST PUSH1 0x0 DUP2 SWAP1 POP DUP2 PUSH1 0x0 MSTORE PUSH1 0x20 PUSH1 0x0 KECCAK256 SWAP1 POP SWAP2 SWAP1 POP JUMP JUMPDEST PUSH1 0x0 PUSH1 0x20 PUSH1 0x1F DUP4 ADD DIV SWAP1 POP SWAP2 SWAP1 POP JUMP JUMPDEST PUSH1 0x0 DUP3 DUP3 SHL SWAP1 POP SWAP3 SWAP2 POP POP JUMP JUMPDEST PUSH1 0x0 PUSH1 0x8 DUP4 MUL PUSH2 0xD61 PUSH32 0xFFFFFFFFFFFFFFFFFFFFFFFFFFFFFFFFFFFFFFFFFFFFFFFFFFFFFFFFFFFFFFFF DUP3 PUSH2 0xD24 JUMP JUMPDEST PUSH2 0xD6B DUP7 DUP4 PUSH2 0xD24 JUMP JUMPDEST SWAP6 POP DUP1 NOT DUP5 AND SWAP4 POP DUP1 DUP7 AND DUP5 OR SWAP3 POP POP POP SWAP4 SWAP3 POP POP POP JUMP JUMPDEST PUSH1 0x0 DUP2 SWAP1 POP SWAP2 SWAP1 POP JUMP JUMPDEST PUSH1 0x0 PUSH2 0xDA8 PUSH2 0xDA3 PUSH2 0xD9E DUP5 PUSH2 0x65B JUMP JUMPDEST PUSH2 0xD83 JUMP JUMPDEST PUSH2 0x65B JUMP JUMPDEST SWAP1 POP SWAP2 SWAP1 POP JUMP JUMPDEST PUSH1 0x0 DUP2 SWAP1 POP SWAP2 SWAP1 POP JUMP JUMPDEST PUSH2 0xDC2 DUP4 PUSH2 0xD8D JUMP JUMPDEST PUSH2 0xDD6 PUSH2 0xDCE DUP3 PUSH2 0xDAF JUMP JUMPDEST DUP5 DUP5 SLOAD PUSH2 0xD31 JUMP JUMPDEST DUP3 SSTORE POP POP POP POP JUMP JUMPDEST PUSH1 0x0 SWAP1 JUMP JUMPDEST PUSH2 0xDEB PUSH2 0xDDE JUMP JUMPDEST PUSH2 0xDF6 DUP2 DUP5 DUP5 PUSH2 0xDB9 JUMP JUMPDEST POP POP POP JUMP JUMPDEST JUMPDEST DUP2 DUP2 LT ISZERO PUSH2 0xE1A JUMPI PUSH2 0xE0F PUSH1 0x0 DUP3 PUSH2 0xDE3 JUMP JUMPDEST PUSH1 0x1 DUP2 ADD SWAP1 POP PUSH2 0xDFC JUMP JUMPDEST POP POP JUMP JUMPDEST PUSH1 0x1F DUP3 GT ISZERO PUSH2 0xE5F JUMPI PUSH2 0xE30 DUP2 PUSH2 0xCFF JUMP JUMPDEST PUSH2 0xE39 DUP5 PUSH2 0xD14 JUMP JUMPDEST DUP2 ADD PUSH1 0x20 DUP6 LT ISZERO PUSH2 0xE48 JUMPI DUP2 SWAP1 POP JUMPDEST PUSH2 0xE5C PUSH2 0xE54 DUP6 PUSH2 0xD14 JUMP JUMPDEST DUP4 ADD DUP3 PUSH2 0xDFB JUMP JUMPDEST POP POP JUMPDEST POP POP POP JUMP JUMPDEST PUSH1 0x0 DUP3 DUP3 SHR SWAP1 POP SWAP3 SWAP2 POP POP JUMP JUMPDEST PUSH1 0x0 PUSH2 0xE82 PUSH1 0x0 NOT DUP5 PUSH1 0x8 MUL PUSH2 0xE64 JUMP JUMPDEST NOT DUP1 DUP4 AND SWAP2 POP POP SWAP3 SWAP2 POP POP JUMP JUMPDEST PUSH1 0x0 PUSH2 0xE9B DUP4 DUP4 PUSH2 0xE71 JUMP JUMPDEST SWAP2 POP DUP3 PUSH1 0x2 MUL DUP3 OR SWAP1 POP SWAP3 SWAP2 POP POP JUMP JUMPDEST PUSH2 0xEB4 DUP3 PUSH2 0x6BE JUMP JUMPDEST PUSH8 0xFFFFFFFFFFFFFFFF DUP2 GT ISZERO PUSH2 0xECD JUMPI PUSH2 0xECC PUSH2 0x7E3 JUMP JUMPDEST JUMPDEST PUSH2 0xED7 DUP3 SLOAD PUSH2 0xA9F JUMP JUMPDEST PUSH2 0xEE2 DUP3 DUP3 DUP6 PUSH2 0xE1E JUMP JUMPDEST PUSH1 0x0 PUSH1 0x20 SWAP1 POP PUSH1 0x1F DUP4 GT PUSH1 0x1 DUP2 EQ PUSH2 0xF15 JUMPI PUSH1 0x0 DUP5 ISZERO PUSH2 0xF03 JUMPI DUP3 DUP8 ADD MLOAD SWAP1 POP JUMPDEST PUSH2 0xF0D DUP6 DUP3 PUSH2 0xE8F JUMP JUMPDEST DUP7 SSTORE POP PUSH2 0xF75 JUMP JUMPDEST PUSH1 0x1F NOT DUP5 AND PUSH2 0xF23 DUP7 PUSH2 0xCFF JUMP JUMPDEST PUSH1 0x0 JUMPDEST DUP3 DUP2 LT ISZERO PUSH2 0xF4B JUMPI DUP5 DUP10 ADD MLOAD DUP3 SSTORE PUSH1 0x1 DUP3 ADD SWAP2 POP PUSH1 0x20 DUP6 ADD SWAP5 POP PUSH1 0x20 DUP2 ADD SWAP1 POP PUSH2 0xF26 JUMP JUMPDEST DUP7 DUP4 LT ISZERO PUSH2 0xF68 JUMPI DUP5 DUP10 ADD MLOAD PUSH2 0xF64 PUSH1 0x1F DUP10 AND DUP3 PUSH2 0xE71 JUMP JUMPDEST DUP4 SSTORE POP JUMPDEST PUSH1 0x1 PUSH1 0x2 DUP9 MUL ADD DUP9 SSTORE POP POP POP JUMPDEST POP POP POP POP POP POP JUMP JUMPDEST PUSH1 0x0 PUSH1 0x40 DUP3 ADD SWAP1 POP PUSH2 0xF92 PUSH1 0x0 DUP4 ADD DUP6 PUSH2 0x74E JUMP JUMPDEST DUP2 DUP2 SUB PUSH1 0x20 DUP4 ADD MSTORE PUSH2 0xFA4 DUP2 DUP5 PUSH2 0x715 JUMP JUMPDEST SWAP1 POP SWAP4 SWAP3 POP POP POP JUMP JUMPDEST PUSH32 0x5573657220697320616C72656164792020436F6E6E6563746564000000000000 PUSH1 0x0 DUP3 ADD MSTORE POP JUMP JUMPDEST PUSH1 0x0 PUSH2 0xFE3 PUSH1 0x1A DUP4 PUSH2 0x6C9 JUMP JUMPDEST SWAP2 POP PUSH2 0xFEE DUP3 PUSH2 0xFAD JUMP JUMPDEST PUSH1 0x20 DUP3 ADD SWAP1 POP SWAP2 SWAP1 POP JUMP JUMPDEST PUSH1 0x0 PUSH1 0x20 DUP3 ADD SWAP1 POP DUP2 DUP2 SUB PUSH1 0x0 DUP4 ADD MSTORE PUSH2 0x1012 DUP2 PUSH2 0xFD6 JUMP JUMPDEST SWAP1 POP SWAP2 SWAP1 POP JUMP JUMPDEST PUSH1 0x0 PUSH1 0x20 DUP3 ADD SWAP1 POP PUSH2 0x102E PUSH1 0x0 DUP4 ADD DUP5 PUSH2 0xA38 JUMP JUMPDEST SWAP3 SWAP2 POP POP JUMP INVALID LOG2 PUSH5 0x6970667358 0x22 SLT KECCAK256 0x24 0x21 0x2E DUP9 0x23 REVERT 0xB7 0xA6 INVALID 0xB8 0xD6 COINBASE SLOAD RETURNDATACOPY SWAP8 0xC2 0x4F 0xE2 PUSH18 0x2A58F9B6F6053E93C3684255E064736F6C63 NUMBER STOP ADDMOD SGT STOP CALLER "},"methodIdentifiers":{"chamas(uint256)":"0b5d7085","connect_user()":"9e0cf430","create_chama(string,string,uint256,uint256)":"93520a4c","users(address)":"a87430ba"}}}}}